:100000000C942D010C94F6030C9427040C945804C2
:100010000C9489040C94BA040C94EB040C941C0505
:100020000C944D050C945C010C945C010C945C01E7
:100030000C945C010C945C010C945C010C945C01CC
:100040000C945C010C94850D0C945C010C945C0187
:100050000C945C010C945C010C945C010C947E0586
:100060000C945C010C9421090C94110A0C945C0111
:100070000C945C010C945C010C945C010C945C018C
:100080000C94B30D0C945C010C945C010C945C0119
:100090000C9455090C94500A0C945C010C945C016E
:1000A0000C945C010C945C010C94E10D0C945C01CB
:1000B0000C945C010C945C010C945C010C940F0E8C
:1000C0000C945C010C945C010C945C010C94890907
:1000D0000C948F0A0C945C010C94BD090C94CE0A0C
:1000E0000C945C01D0039A03A203AE03BB03DC03B0
:1000F000E903A506AA06AF06B9063207C306CB0672
:10010000D306DD06E706F10600070A0732071407E3
:100110001E0728075007530746074A078A0757074D
:100120005B076107650769076F07730777078A072A
:100130007D07810785070000090A02080B0C0D07DF
:1001400006030401000000000000000000000000A1
:10015000000000000000000000000000000000009F
:10016000000011100F00000000000000000000005F
:10017000000000000000000000000000010210204C
:1001800020080810204010204080020102010804CD
:100190000201010204081020408080402010080461
:1001A00002018004020180402010080402010804BA
:1001B00002010102040810204080010204081020FE
:1001C0004080050505050705080808080202020227
:1001D0000A0A0808040404040101010101010101E3
:1001E0000303030303030303040707070C0C0C0CAE
:1001F0000C0C0C0C02020202060606060606060697
:100200000B0B0B0B0B0B0B0B00002000230026002D
:1002100029002C002F00320000010000030106011C
:10022000090100002200250028002B002E003100CB
:10023000340002010000050108010B01000021004B
:10024000240027002A002D003000330001010000A7
:10025000040107010A01F4028E0B11241FBECFEF27
:10026000D1E2DEBFCDBF12E0A0E0B2E0E8EAF0E20A
:1002700000E00BBF02C007900D92A632B107D9F77C
:1002800025E0A6E2B2E001C01D92A339B207E1F772
:1002900012E0CAE5D2E000E006C022970109FE01A3
:1002A0000BBF0E943F10C635D10780E00807A9F7B1
:1002B0000E9423080C94CE0F0C940000DC01ED91F9
:1002C000FC910190F081E02D099440E052EC61E056
:1002D00070E08CEB92E00E940D0B40E056E960E08C
:1002E00070E08AE992E00E940D0B61E080911402B7
:1002F0000E948B0761E0809112020E948B0760E0F0
:10030000809110020E948B0760E0809104020E949D
:100310008B0761E080910E020E948B0761E0809163
:100320000C020E948B0761E080910A020E948B07F9
:10033000609106027091070289E292E00E94080F24
:10034000609108027091090286E292E00E94080F13
:1003500042E050E065E172E081E00C948503909307
:100360003B0280933A0270933702609336025093B7
:10037000390240933802BC0180910E020E947F0630
:10038000609136027091370280910C020E947F06C4
:10039000609138027091390280910A020C947F06B4
:1003A0000F931F938091340290913502892B41F570
:1003B0000E94C80500912C0210912D0220912E025E
:1003C00030912F02601B710B820B930B693E7340BF
:1003D0008105910510F160913C0281E068276093EE
:1003E0003C02809112020E94C4070E94C8056093DB
:1003F0002C0270932D0280932E0290932F020DC039
:100400008091340290913502019739F461E0809136
:1004100012021F910F910C94C4071F910F91089520
:10042000682F809114020C94C4070F931F930E94AD
:10043000C8050091300210913102209132023091B2
:100440003302601B710B820B930B693C71058105B4
:100450009105F0F0209134023091350281E090E076
:10046000232B11F080E090E09093350280933402CA
:1004700080913402909135020E9410020E94C805BA
:100480006093300270933102809332029093330272
:100490001F910F910895AF92BF92CF92DF92EF928A
:1004A000FF920F931F931F921F921F9284EB8F93C3
:1004B000A12CB12C65011CEFE12E1FE0F12E00E014
:1004C00010E020E030E0A9016CEF7FE080E090E0F8
:1004D0000E94300886E292E00E94410F6FE070E0D7
:1004E00080E090E00E94F7050F900F900F900F9022
:1004F00040E050E06FEF70E08FEF90E01F910F91C0
:10050000FF90EF90DF90CF90BF90AF900C94AF0131
:10051000AF92BF92CF92DF92EF92FF920F931F9311
:100520001F921F921F9284EB8F93A12CB12C650117
:100530001CEFE12E1FE0F12E00E010E020E030E0A3
:10054000A90160E070E0CB010E94300886E292E0F1
:100550000E94410F6FE070E080E090E00E94F7059C
:100560000F900F900F900F9040E050E06FEF70E011
:100570008FEF90E01F910F91FF90EF90DF90CF9061
:10058000BF90AF900C94AF016CE670E089E292E00E
:100590000E94410F6FE070E080E090E00E94F7055C
:1005A00040E050E060E070E08FEF90E00C94AF012D
:1005B00066EA70E089E292E00E94410F6FE070E02D
:1005C00080E090E00E94F70540E050E060E070E0DD
:1005D0008FEF90E00C94AF0160913402709135027E
:1005E0008CEB92E00C945E0189E292E00E943D0E59
:1005F00086E292E00C943D0E8AE992E00E94770830
:10060000892B91F08AE992E00E94A008BC018CEB52
:1006100092E00E945E0140E050E06FEF70E082EDFA
:1006200090E00E94AF01E8CF08950F931F93CF93FE
:10063000DF9361E370E08CEB92E00E945E018CEB53
:1006400092E00E94A0088C01C0E0D0E0C017D10762
:100650008CF48CEB92E00E947708892BD1F38CEB21
:1006600092E00E94A008BC018AE992E00E945E012B
:100670002196ECCFB8018CEB92E00E945E0161E321
:1006800070E08CEB92E00E945E014FEF50E06FEF64
:1006900070E080E090E0DF91CF911F910F910C947A
:1006A000AF018CEB92E00E947708892B39F18091A1
:1006B00004020E94FA07019711F40C9415038CEBC5
:1006C00092E00E94A0088633910581F034F48233D1
:1006D000910581F0C59761F008958733910521F068
:1006E0008236910549F008950C944B020C948802CF
:1006F0000C94D8020C94C4020C94EC0208950E944D
:10070000D0010E9451030C94FC02883008F06DC0A7
:10071000E82FF0E0EE0FFF1FE35CFD4F7183608375
:1007200090E0FC013197E730F10590F5EE58FF4F6E
:100730000C942E10809169008C7F842B809369002B
:10074000E89A089580916900440F551F440F551F82
:10075000837F842B80936900E99A089580916900D2
:1007600074E0440F551F7A95E1F78F7C842B8093BA
:100770006900EA9A08958091690066E0440F551F68
:100780006A95E1F78F73842B80936900EB9A089543
:1007900080916A008C7F842B80936A00EC9A089584
:1007A00080916A00440F551F440F551F837F842B8F
:1007B00080936A00ED9A089580916A0024E0440FC6
:1007C000551F2A95E1F78F7C842B80936A00EE9A5F
:1007D000089580916A0096E0440F551F9A95E1F7BD
:1007E0008F73842B80936A00EF9A08951F920F9263
:1007F0000FB60F9211240BB60F922F933F934F9386
:100800005F936F937F938F939F93AF93BF93EF9378
:10081000FF938091410290914202892B29F0E0914F
:100820004102F09142020995FF91EF91BF91AF9182
:100830009F918F917F916F915F914F913F912F91F8
:100840000F900BBE0F900FBE0F901F9018951F9228
:100850000F920FB60F9211240BB60F922F933F9366
:100860004F935F936F937F938F939F93AF93BF93B8
:10087000EF93FF938091430290914402892B29F0DA
:10088000E0914302F09144020995FF91EF91BF91ED
:10089000AF919F918F917F916F915F914F913F9118
:1008A0002F910F900BBE0F900FBE0F901F901895B9
:1008B0001F920F920FB60F9211240BB60F922F9327
:1008C0003F934F935F936F937F938F939F93AF93D8
:1008D000BF93EF93FF938091450290914602892B3D
:1008E00029F0E0914502F09146020995FF91EF91C0
:1008F000BF91AF919F918F917F916F915F914F9138
:100900003F912F910F900BBE0F900FBE0F901F9035
:1009100018951F920F920FB60F9211240BB60F92DB
:100920002F933F934F935F936F937F938F939F93F7
:10093000AF93BF93EF93FF9380914702909148024A
:10094000892B29F0E0914702F09148020995FF9127
:10095000EF91BF91AF919F918F917F916F915F9137
:100960004F913F912F910F900BBE0F900FBE0F90A4
:100970001F9018951F920F920FB60F9211240BB66D
:100980000F922F933F934F935F936F937F938F9328
:100990009F93AF93BF93EF93FF9380913D0290910C
:1009A0003E02892B29F0E0913D02F0913E0209952B
:1009B000FF91EF91BF91AF919F918F917F916F9137
:1009C0005F914F913F912F910F900BBE0F900FBEF3
:1009D0000F901F9018951F920F920FB60F9211242F
:1009E0000BB60F922F933F934F935F936F937F9329
:1009F0008F939F93AF93BF93EF93FF9380913F02A9
:100A000090914002892B29F0E0913F02F091400241
:100A10000995FF91EF91BF91AF919F918F917F9138
:100A20006F915F914F913F912F910F900BBE0F905F
:100A30000FBE0F901F9018951F920F920FB60F9236
:100A400011240BB60F922F933F934F935F936F93A5
:100A50007F938F939F93AF93BF93EF93FF93809177
:100A6000490290914A02892B29F0E0914902F091C4
:100A70004A020995FF91EF91BF91AF919F918F919C
:100A80007F916F915F914F913F912F910F900BBE8E
:100A90000F900FBE0F901F9018951F920F920FB6D8
:100AA0000F9211240BB60F922F933F934F935F93A6
:100AB0006F937F938F939F93AF93BF93EF93FF9326
:100AC00080914B0290914C02892B29F0E0914B02CE
:100AD000F0914C020995FF91EF91BF91AF919F91D9
:100AE0008F917F916F915F914F913F912F910F90D7
:100AF0000BBE0F900FBE0F901F9018951F920F9274
:100B00000FB60F9211242F933F938F939F93AF9320
:100B1000BF9380914E0290914F02A0915002B091EC
:100B2000510230914D0223E0230F2D3720F401961E
:100B3000A11DB11D05C026E8230F0296A11DB11D00
:100B400020934D0280934E0290934F02A093500247
:100B5000B09351028091520290915302A09154029D
:100B6000B09155020196A11DB11D80935202909340
:100B70005302A0935402B0935502BF91AF919F913D
:100B80008F913F912F910F900FBE0F901F9018954E
:100B90002FB7F89460914E0270914F0280915002ED
:100BA000909151022FBF08953FB7F894809152025F
:100BB00090915302A0915402B091550226B5A89B82
:100BC00005C02F3F19F00196A11DB11D3FBF66273B
:100BD000782F892F9A2F620F711D811D911D42E080
:100BE000660F771F881F991F4A95D1F70895CF92F6
:100BF000DF92EF92FF92CF93DF936B017C010E9413
:100C0000D405EB01C114D104E104F10479F00E9490
:100C1000D4056C1B7D0B683E7340A0F381E0C81ABD
:100C2000D108E108F108C851DC4FECCFDF91CF913A
:100C3000FF90EF90DF90CF900895789484B5826014
:100C400084BD84B5816084BD85B5826085BD85B570
:100C5000816085BDEEE6F0E0808181608083E1E81F
:100C6000F0E0108280818260808380818160808357
:100C7000E0E8F0E0808181608083E1EBF0E080815A
:100C800084608083E0EBF0E0808181608083E1E933
:100C9000F0E0808182608083808181608083E0E9F0
:100CA000F0E0808181608083E1EAF0E08081826011
:100CB0008083808181608083E0EAF0E080818160D0
:100CC0008083E1E2F1E080818260808380818160C5
:100CD0008083E0E2F1E0808181608083EAE7F0E0F8
:100CE0008081846080838081826080838081816054
:100CF00080838081806880831092C10008951F9353
:100D0000CF93DF93182FEB0161E00E948B072097B0
:100D100011F460E004C0CF3FD10539F461E0812FC8
:100D2000DF91CF911F910C94C407E12FF0E0EA5CB2
:100D3000FE4F449150E0FA013197E131F10508F09E
:100D400091C0E758FF4F0C942E1084B5806884BD85
:100D5000C7BD8DC084B5806284BDC8BD88C0809188
:100D60008000806880938000D0938900C0938800C1
:100D70007EC080918000806280938000D0938B0041
:100D8000C0938A0074C08091B00080688093B000E6
:100D9000C093B3006CC08091B00080628093B000BB
:100DA000C093B40064C080919000806880939000EC
:100DB000D0939900C09398005AC0809190008062AF
:100DC00080939000D0939B00C0939A0050C0809174
:100DD0009000886080939000D0939D00C0939C0009
:100DE00046C08091A00080688093A0008091A00000
:100DF0008F7B8093A000D093A900C093A80037C038
:100E00008091A00080628093A000D093AB00C0933B
:100E1000AA002DC08091A00088608093A000D0938C
:100E2000AD00C093AC0023C0809120018068809306
:100E30002001D0932901C093280119C0809120017D
:100E4000806280932001D0932B01C0932A010FC0B0
:100E500080912001886080932001D0932D01C09360
:100E60002C0105C0C038D1050CF058CF52CFDF910E
:100E7000CF911F91089590E0FC013197E131F10588
:100E800008F048C0E657FF4F0C942E108091800068
:100E90008F7703C0809180008F7D809380000895BC
:100EA00084B58F7702C084B58F7D84BD089580910D
:100EB000B0008F7703C08091B0008F7D8093B00029
:100EC0000895809190008F7707C0809190008F7D6A
:100ED00003C080919000877F809390000895809157
:100EE000A0008F7707C08091A0008F7D03C0809104
:100EF000A000877F8093A0000895809120018F77C4
:100F000007C0809120018F7D03C080912001877FE1
:100F1000809320010895CF93DF9390E0FC01E45883
:100F2000FE4F2491FC01EE53FE4F8491882349F13A
:100F300090E0880F991FFC01E45CFD4FA591B491EE
:100F40008E5D9D4FFC01C591D4919FB7611108C082
:100F5000F8948C91209582238C93888182230AC0F7
:100F6000623051F4F8948C91322F309583238C9316
:100F70008881822B888304C0F8948C91822B8C9377
:100F80009FBFDF91CF9108950F931F93CF93DF936E
:100F90001F92CDB7DEB7282F30E0F901EA5CFE4F93
:100FA0008491F901E458FE4F1491F901EE53FE4F7C
:100FB00004910023C9F0882321F069830E943B0734
:100FC0006981E02FF0E0EE0FFF1FEE5DFD4FA59170
:100FD000B4919FB7F8948C91611103C0109581234F
:100FE00001C0812B8C939FBF0F90DF91CF911F91F8
:100FF0000F910895CF93DF93282F30E0F901EA5C39
:10100000FE4F8491F901E458FE4FD491F901EE535B
:10101000FE4FC491CC2391F081110E943B07EC2F2D
:10102000F0E0EE0FFF1FE85FFD4FA591B4912C910A
:101030002D2381E090E021F480E002C080E090E088
:10104000DF91CF9108950E941D060E946501C0EFB7
:10105000D9E00E947F032097E1F30E94F009F9CFC5
:101060004F925F926F927F92AF92BF92CF92DF9238
:10107000EF92FF920F931F93CF93DF93CDB7DEB71D
:1010800029013A01621B730B840B950B29893A895C
:101090004B895C892A193B094C095D09298B3A8BDC
:1010A0004B8B5C8B9B01AC0169897A898B899C890C
:1010B0000E94D10FE418F50806091709A801970145
:1010C0000E940F102A0D3B1D4C1D5D1DCA01B90168
:1010D000DF91CF911F910F91FF90EF90DF90CF9014
:1010E000BF90AF907F906F905F904F900895FC01FC
:1010F00024853585F901E05CFF4F8081918132962E
:1011000020813181821B930B8F7399270895FC01F5
:1011100084859585FC01E05CFF4F408151813296CA
:10112000208131814217530741F00190F081E02D79
:10113000E80FF91F808190E008958FEF9FEF0895E9
:10114000FC0184859585FC01E05CFF4F4081518165
:101150003296208131814217530779F0A081B18105
:10116000A80FB91F8C91208131812F5F3F4F2F73C2
:1011700033273183208390E008958FEF9FEF089508
:10118000FC0181A1882329F0A489B5898C9186FF6F
:10119000FBCF11A20895CF93DF93FC0126853785FD
:1011A000D901A05CBF4F8D919C91119701968F73CF
:1011B0009927E901CE5BDF4F488159818417950754
:1011C000D9F30D90BC91A02DA20FB31F6C93A685EF
:1011D000B785A05CBF4F11969C938E93A689B78963
:1011E0002C9181E090E0078C02C0880F991F0A942F
:1011F000E2F7282B2C9381E081A30488F589E02D68
:1012000080818064808381E090E0DF91CF910895B8
:10121000FB01E05CFF4F208131812F5F3F4F2F7337
:101220003327DB01AE5BBF4F4D915C91241735072F
:1012300039F0A081B181A60FB71F8C933183208331
:1012400008951F920F920FB60F9211240BB60F92B2
:101250002F933F934F935F936F937F938F939F93BE
:10126000AF93BF93EF93FF938091C00082FD07C0BF
:101270008091C6006AEB74E00E94080902C0809168
:10128000C600FF91EF91BF91AF919F918F917F9198
:101290006F915F914F913F912F910F900BBE0F90E7
:1012A0000FBE0F901F90189508951F920F920FB6C2
:1012B0000F9211240BB60F922F933F934F935F938E
:1012C0006F937F938F939F93AF93BF93EF93FF930E
:1012D0008091C80082FD07C08091CE0062E374E077
:1012E0000E94080902C08091CE00FF91EF91BF914A
:1012F000AF919F918F917F916F915F914F913F91AE
:101300002F910F900BBE0F900FBE0F901F9018954E
:1013100008951F920F920FB60F9211240BB60F92E1
:101320002F933F934F935F936F937F938F939F93ED
:10133000AF93BF93EF93FF938091D00082FD07C0DE
:101340008091D6006AEA73E00E94080902C0809189
:10135000D600FF91EF91BF91AF919F918F917F91B7
:101360006F915F914F913F912F910F900BBE0F9016
:101370000FBE0F901F90189508951F920F920FB6F1
:101380000F9211240BB60F922F933F934F935F93BD
:101390006F937F938F939F93AF93BF93EF93FF933D
:1013A0008091300182FD07C08091360162E273E0D6
:1013B0000E94080902C080913601FF91EF91BF9110
:1013C000AF919F918F917F916F915F914F913F91DD
:1013D0002F910F900BBE0F900FBE0F901F9018957E
:1013E0008CEB92E00E947708892B11F00E94510348
:1013F0008AE992E00E947708892B11F00E94540933
:1014000088E792E00E947708892B11F00E948809F2
:1014100086E592E00E947708892B11F00C94BC09B4
:1014200008951F920F920FB60F9211240BB60F92D0
:101430002F933F938F939F93EF93FF932091B60445
:101440003091B7048091B8049091B90428173907F6
:1014500031F48091C1008F7D8093C10014C0E09170
:10146000B804F091B904EA58FB4F20818091B80488
:101470009091B90401968F7399279093B904809342
:10148000B8042093C600FF91EF919F918F913F91F7
:101490002F910F900BBE0F900FBE0F901F901895BD
:1014A0001F920F920FB60F9211240BB60F922F932B
:1014B0003F938F939F93EF93FF9320912E0430914E
:1014C0002F0480913004909131042817390731F4AA
:1014D0008091C9008F7D8093C90014C0E0913004D1
:1014E000F0913104E251FC4F2081809130049091C1
:1014F000310401968F7399279093310480933004BF
:101500002093CE00FF91EF919F918F913F912F916A
:101510000F900BBE0F900FBE0F901F9018951F924B
:101520000F920FB60F9211240BB60F922F933F9389
:101530008F939F93EF93FF932091A6033091A7037E
:101540008091A8039091A9032817390731F480915D
:10155000D1008F7D8093D10014C0E091A803F09159
:10156000A903EA59FC4F20818091A8039091A90317
:1015700001968F7399279093A9038093A8032093D2
:10158000D600FF91EF919F918F913F912F910F90F6
:101590000BBE0F900FBE0F901F9018951F920F92C9
:1015A0000FB60F9211240BB60F922F933F938F9388
:1015B0009F93EF93FF9320911E0330911F0380911F
:1015C0002003909121032817390731F480913101CC
:1015D0008F7D8093310114C0E0912003F0912103AD
:1015E000E252FD4F208180912003909121030196CA
:1015F0008F739927909321038093200320933601C2
:10160000FF91EF919F918F913F912F910F900BBE82
:101610000F900FBE0F901F901895CF92DF92EF9210
:10162000FF92CF93DF93EC016A017B01411581EEBC
:10163000580761057105F9F0EC89FD8981E090E0BA
:1016400008A002C0880F991F0A94E2F7808360E027
:1016500079E08DE390E0A70196010E94ED0F215003
:101660003109410951095695479537952795211517
:1016700080E1380798F0EC89FD89108260E874E811
:101680008EE190E0A70196010E94ED0F21503109F3
:10169000410951095695479537952795E889F98964
:1016A0003083EA89FB89208319A2EE89FF89408172
:1016B00081E090E09C010C8C02C0220F331F0A9441
:1016C000E2F7422B4083EE89FF8940819C010D8C1B
:1016D00002C0220F331F0A94E2F7422B4083EE89A7
:1016E000FF8940819C010E8C02C0220F331F0A9497
:1016F000E2F7422B4083EE89FF8920810F8C02C0E4
:10170000880F991F0A94E2F7809582238083DF91E6
:10171000CF91FF90EF90DF90CF900895CF931092EC
:10172000BF021092BE0288EE93E0A0E0B0E080938A
:10173000C0029093C102A093C202B093C3022AE1F7
:1017400032E03093BD022093BC024AEB54E0509348
:10175000C9024093C80246E754E05093CB0240933D
:10176000CA0245EC50E05093CD024093CC0244ECC9
:1017700050E05093CF024093CE0240EC50E05093A3
:10178000D1024093D00241EC50E05093D3024093F9
:10179000D20242EC50E05093D5024093D40246EC82
:1017A00050E05093D7024093D602C4E0C093D802D1
:1017B000F3E0F093D902E7E0E093DA0275E070938A
:1017C000DB0261E06093DC0210929D0210929C02A9
:1017D00080939E0290939F02A093A002B093A102D7
:1017E00030939B0220939A0242E354E05093A70265
:1017F0004093A6024EEE53E05093A9024093A802F4
:101800004DEC50E05093AB024093AA024CEC50E0F8
:101810005093AD024093AC0248EC50E05093AF02BD
:101820004093AE0249EC50E05093B1024093B002B5
:101830004AEC50E05093B3024093B2024EEC50E0B9
:101840005093B5024093B402C093B602F093B7022E
:10185000E093B8027093B9026093BA0210927B02CF
:1018600010927A0280937C0290937D02A0937E0274
:10187000B0937F0230937902209378024AEA53E0D2
:10188000509385024093840246E653E050938702CA
:101890004093860245ED50E05093890240938802C0
:1018A00044ED50E050938B0240938A0240ED50E0AB
:1018B00050938D0240938C0241ED50E050938F0283
:1018C00040938E0242ED50E050939102409390027B
:1018D00046ED50E05093930240939202C0939402DD
:1018E000F0939502E09396027093970260939802AA
:1018F000109259021092580280935A0290935B0200
:10190000A0935C02B0935D0230935702209356027D
:1019100082E293E090936302809362028EED92E004
:10192000909365028093640285E391E0909367024F
:101930008093660284E391E0909369028093680249
:1019400080E391E090936B0280936A0281E391E0DF
:1019500090936D0280936C0282E391E090936F020A
:1019600080936E0286E391E09093710280937002FF
:10197000C0937202F0937302E09374027093750245
:1019800060937602CF910895CF92DF92EF92FF920B
:101990000F931F93CF93DF936C018B017A01EC01BE
:1019A000C150DB4F888187FF04C0FB011182108288
:1019B00023C02CE02C9DC0012D9D900D1124288169
:1019C000AC01420F511D27FD5A952091FE0430E0D5
:1019D000421753078CF42881AC01420F511D27FD9B
:1019E0005A959A01FA01EE0FFF1FE20FF31FED5F08
:1019F000FA4F208126FD19C088818F5F88838CE093
:101A00008C9D90018D9D300D11248881A901480F76
:101A1000511D87FD5A958091FE0490E048175907A3
:101A2000B4F488818C303CF112C02881820F911D62
:101A300027FD9A95FC01EE0FFF1FE80FF91FED5FE0
:101A4000FA4F808160E08F730E94C407D5CFF80100
:101A500080819181049680349C4918F480E49CE94B
:101A600004C0F801808191810496F70191838083FD
:101A70008FEF888341C0F801808191814881B9014D
:101A8000640F711D47FD7A95AB01FB01EE0FFF1F3F
:101A9000E40FF51FED5FFA4F41815281840F951FCE
:101AA000F701918380838881A901480F511D87FD2B
:101AB0005A95FA01EE0FFF1FE40FF51FED5FFA4F85
:101AC000808186FF19C08881280F311D87FD3A95D6
:101AD000F901EE0FFF1FE20FF31FED5FFA4F808158
:101AE00061E08F73DF91CF911F910F91FF90EF9085
:101AF000DF90CF900C94C407DF91CF911F910F918D
:101B0000FF90EF90DF90CF9008951F920F920FB645
:101B10000F9211240BB60F922F933F934F935F9325
:101B20006F937F938F939F93AF93BF93EF93FF93A5
:101B300048E850E064E870E081E090E00E94C40C66
:101B4000FF91EF91BF91AF919F918F917F916F9195
:101B50005F914F913F912F910F900BBE0F900FBE51
:101B60000F901F9018951F920F920FB60F9211248D
:101B70000BB60F922F933F934F935F936F937F9387
:101B80008F939F93AF93BF93EF93FF9348E950E0F8
:101B900064E970E082E090E00E94C40CFF91EF9154
:101BA000BF91AF919F918F917F916F915F914F9175
:101BB0003F912F910F900BBE0F900FBE0F901F9073
:101BC00018951F920F920FB60F9211240BB60F9219
:101BD0002F933F934F935F936F937F938F939F9335
:101BE000AF93BF93EF93FF9348EA50E064EA70E04D
:101BF00083E090E00E94C40CFF91EF91BF91AF9100
:101C00009F918F917F916F915F914F913F912F9114
:101C10000F900BBE0F900FBE0F901F9018951F9244
:101C20000F920FB60F9211240BB60F922F933F9382
:101C30004F935F936F937F938F939F93AF93BF93D4
:101C4000EF93FF9348E251E064E271E080E090E0BE
:101C50000E94C40CFF91EF91BF91AF919F918F9122
:101C60007F916F915F914F913F912F910F900BBE9C
:101C70000F900FBE0F901F9018952091FE042033F7
:101C8000A0F431E0320F3093FE04FC012083822F58
:101C900090E0FC01EE0FFF1FE80FF91FED5FFA4F18
:101CA00088EB9BE09283818308952FEFFC012083D2
:101CB0000895DF92EF92FF920F931F93CF93DF93DC
:101CC000EC01D62E7A0189018881803308F068C042
:101CD00061E08D2D0E948B078881A82FB0E0FD0167
:101CE000EE0FFF1FEA0FFB1FED5FFA4F2D2D2F7335
:101CF0009081907C922B908360E272E06E197F0954
:101D000077FF02C06D5F7F4F7595679575956795F5
:101D1000698340E659E0401B510B57FF02C04D5FFD
:101D20005F4F55954795559547954A836CE00E94BE
:101D3000E10F9CE0899FB001112420E030E0A9016F
:101D4000460F571FFA01EE0FFF1FE40FF51FED5F5F
:101D5000FA4F908196FD18C02F5F3F4F2C30310510
:101D600071F790E08130910521F51092800082E0BA
:101D7000809381001092850010928400B19A809126
:101D80006F00826080936F00888190E0FC01EE0F0D
:101D9000FF1FE80FF91FED5FFA4F80818064808399
:101DA0008881DF91CF911F910F91FF90EF90DF908D
:101DB00008958230910569F41092900082E080933A
:101DC0009100109295001092940088BB809371004E
:101DD000DBCF8330910569F41092A00082E08093FC
:101DE000A1001092A5001092A40089BB80937200FC
:101DF000CBCF892B49F61092200182E080932101FC
:101E000010922501109224018ABB80937300BCCFED
:101E100020E639E040E252E00C94590EFC0180814A
:101E2000803370F5918128E830E0291B310997FD56
:101E30003395220F331F220F331F621773077CF075
:101E4000928128E532E0291B310997FD3395220F55
:101E5000331F220F331F621773070CF49B014FB718
:101E6000F89490E0FC01EE0FFF1FE80FF91FED5F03
:101E7000FA4F22503109220F331F328321834FBF83
:101E800008954F925F926F927F92AF92BF92CF92DE
:101E9000DF92EF92FF920F931F93CF93DF93EC01AA
:101EA000603282E078070CF040C077FD06C0653BE9
:101EB00071052CF064EB70E002C060E070E0898195
:101EC00028E830E0281B310987FD3395220F331FA6
:101ED000220F331F5901CC24B7FCC094DC2C882777
:101EE00077FD8095982F2A8148E552E0421B5109E1
:101EF00027FD5395440F551F440F551F2A01662493
:101F000057FC6094762C7F926F925F924F9214EB05
:101F1000E12EF12C00E010E020E030E0A9010E9469
:101F200030080F900F900F900F90CE01DF91CF915E
:101F30001F910F91FF90EF90DF90CF90BF90AF90E7
:101F40007F906F905F904F900C940E0FCF92DF9226
:101F5000EF92FF920F931F93CF93DF936C017A015F
:101F6000EB01E60EF71E00E010E0CE15DF0561F094
:101F70006991D601ED91FC910190F081E02DC601AF
:101F80000995080F191FF1CFC801DF91CF911F915B
:101F90000F91FF90EF90DF90CF900895F8940C94FC
:101FA0005210DB018F939F930E943410BF91AF9129
:101FB000A29F800D911DA39F900DB29F900D1124A3
:101FC0000895991B79E004C0991F961708F0961B95
:101FD000881F7A95C9F780950895A1E21A2EAA1B49
:101FE000BB1BFD010DC0AA1FBB1FEE1FFF1FA217C9
:101FF000B307E407F50720F0A21BB30BE40BF50BC6
:10200000661F771F881F991F1A9469F7609570954E
:10201000809590959B01AC01BD01CF010895052EDF
:1020200097FB1EF400940E94261057FD07D00E94D3
:10203000ED0F07FC03D04EF40C94261050954095FC
:10204000309521953F4F4F4F5F4F08959095809564
:10205000709561957F4F8F4F9F4F0895EE0FFF1F33
:102060000590F491E02D09940E944310A59F900DD6
:10207000B49F900DA49F800D911D11240895079089
:10208000F691E02D0994A29FB001B39FC001A39FD8
:10209000700D811D1124911DB29F700D811D1124A1
:0820A000911D0895F894FFCF93
:1020A8000100000016000500040009000A000B00EA
:1020B800030032002E0000000000CB08A60F7708AE
:0620C800A0088708C00813
:00000001FF
